{
  "contractName": "Escrow",
  "abi": [
    {
      "constant": true,
      "inputs": [],
      "name": "owner",
      "outputs": [
        {
          "name": "",
          "type": "address"
        }
      ],
      "payable": false,
      "stateMutability": "view",
      "type": "function"
    },
    {
      "inputs": [
        {
          "name": "_owner",
          "type": "address"
        }
      ],
      "payable": false,
      "stateMutability": "nonpayable",
      "type": "constructor"
    },
    {
      "payable": true,
      "stateMutability": "payable",
      "type": "fallback"
    },
    {
      "constant": false,
      "inputs": [
        {
          "name": "_token",
          "type": "address"
        },
        {
          "name": "_amount",
          "type": "uint256"
        }
      ],
      "name": "extractFunds",
      "outputs": [],
      "payable": false,
      "stateMutability": "nonpayable",
      "type": "function"
    },
    {
      "constant": false,
      "inputs": [
        {
          "name": "_token",
          "type": "address"
        }
      ],
      "name": "extractAllFunds",
      "outputs": [],
      "payable": false,
      "stateMutability": "nonpayable",
      "type": "function"
    },
    {
      "constant": false,
      "inputs": [
        {
          "name": "_amount",
          "type": "uint256"
        }
      ],
      "name": "extractEther",
      "outputs": [],
      "payable": false,
      "stateMutability": "nonpayable",
      "type": "function"
    },
    {
      "constant": true,
      "inputs": [
        {
          "name": "_token",
          "type": "address"
        }
      ],
      "name": "checkTokenBalance",
      "outputs": [
        {
          "name": "",
          "type": "uint256"
        }
      ],
      "payable": false,
      "stateMutability": "view",
      "type": "function"
    }
  ],
  "bytecode": "0x608060405234801561001057600080fd5b50604051602080610bb68339810180604052602081101561003057600080fd5b8101908080519060200190929190505050600073ffffffffffffffffffffffffffffffffffffffff168173ffffffffffffffffffffffffffffffffffffffff16141515156100e6576040517f08c379a000000000000000000000000000000000000000000000000000000000815260040180806020018281038252601d8152602001807f546865206f776e65722061646472657373206d7573742062652073657400000081525060200191505060405180910390fd5b806000806101000a81548173ffffffffffffffffffffffffffffffffffffffff021916908373ffffffffffffffffffffffffffffffffffffffff16021790555050610a80806101366000396000f3fe608060405260043610610067576000357c010000000000000000000000000000000000000000000000000000000090048063126cbe60146100695780631d033514146100ce5780633995f042146101295780635729bbc41461017a5780638da5cb5b146101b5575b005b34801561007557600080fd5b506100b86004803603602081101561008c57600080fd5b81019080803573ffffffffffffffffffffffffffffffffffffffff16906020019092919050505061020c565b6040518082815260200191505060405180910390f35b3480156100da57600080fd5b50610127600480360360408110156100f157600080fd5b81019080803573ffffffffffffffffffffffffffffffffffffffff1690602001909291908035906020019092919050505061038d565b005b34801561013557600080fd5b506101786004803603602081101561014c57600080fd5b81019080803573ffffffffffffffffffffffffffffffffffffffff1690602001909291905050506105dd565b005b34801561018657600080fd5b506101b36004803603602081101561019d57600080fd5b810190808035906020019092919050505061083a565b005b3480156101c157600080fd5b506101ca6109be565b604051808273ffffffffffffffffffffffffffffffffffffffff1673ffffffffffffffffffffffffffffffffffffffff16815260200191505060405180910390f35b60008073ffffffffffffffffffffffffffffffffffffffff168273ffffffffffffffffffffffffffffffffffffffff16141515156102b2576040517f08c379a000000000000000000000000000000000000000000000000000000000815260040180806020018281038252601d8152602001807f54686520746f6b656e2061646472657373206d7573742062652073657400000081525060200191505060405180910390fd5b8173ffffffffffffffffffffffffffffffffffffffff166370a08231306040518263ffffffff167c0100000000000000000000000000000000000000000000000000000000028152600401808273ffffffffffffffffffffffffffffffffffffffff1673ffffffffffffffffffffffffffffffffffffffff16815260200191505060206040518083038186803b15801561034b57600080fd5b505afa15801561035f573d6000803e3d6000fd5b505050506040513d602081101561037557600080fd5b81019080805190602001909291905050509050919050565b6000809054906101000a900473ffffffffffffffffffffffffffffffffffffffff1673ffffffffffffffffffffffffffffffffffffffff163373ffffffffffffffffffffffffffffffffffffffff16141515610434576040517f08c379a000000000000000000000000000000000000000000000000000000000815260040180806020018281038252602e8152602001806109e4602e913960400191505060405180910390fd5b600073ffffffffffffffffffffffffffffffffffffffff168273ffffffffffffffffffffffffffffffffffffffff16141515156104d9576040517f08c379a000000000000000000000000000000000000000000000000000000000815260040180806020018281038252601d8152602001807f54686520746f6b656e2061646472657373206d7573742062652073657400000081525060200191505060405180910390fd5b8173ffffffffffffffffffffffffffffffffffffffff1663a9059cbb6000809054906101000a900473ffffffffffffffffffffffffffffffffffffffff16836040518363ffffffff167c0100000000000000000000000000000000000000000000000000000000028152600401808373ffffffffffffffffffffffffffffffffffffffff1673ffffffffffffffffffffffffffffffffffffffff16815260200182815260200192505050602060405180830381600087803b15801561059d57600080fd5b505af11580156105b1573d6000803e3d6000fd5b505050506040513d60208110156105c757600080fd5b8101908080519060200190929190505050505050565b6000809054906101000a900473ffffffffffffffffffffffffffffffffffffffff1673ffffffffffffffffffffffffffffffffffffffff163373ffffffffffffffffffffffffffffffffffffffff16141515610684576040517f08c379a000000000000000000000000000000000000000000000000000000000815260040180806020018281038252602e8152602001806109e4602e913960400191505060405180910390fd5b600073ffffffffffffffffffffffffffffffffffffffff168173ffffffffffffffffffffffffffffffffffffffff1614151515610729576040517f08c379a000000000000000000000000000000000000000000000000000000000815260040180806020018281038252601d8152602001807f54686520746f6b656e2061646472657373206d7573742062652073657400000081525060200191505060405180910390fd5b60006107348261020c565b90508173ffffffffffffffffffffffffffffffffffffffff1663a9059cbb6000809054906101000a900473ffffffffffffffffffffffffffffffffffffffff16836040518363ffffffff167c0100000000000000000000000000000000000000000000000000000000028152600401808373ffffffffffffffffffffffffffffffffffffffff1673ffffffffffffffffffffffffffffffffffffffff16815260200182815260200192505050602060405180830381600087803b1580156107fa57600080fd5b505af115801561080e573d6000803e3d6000fd5b505050506040513d602081101561082457600080fd5b8101908080519060200190929190505050505050565b6000809054906101000a900473ffffffffffffffffffffffffffffffffffffffff1673ffffffffffffffffffffffffffffffffffffffff163373ffffffffffffffffffffffffffffffffffffffff161415156108e1576040517f08c379a000000000000000000000000000000000000000000000000000000000815260040180806020018281038252602e8152602001806109e4602e913960400191505060405180910390fd5b3073ffffffffffffffffffffffffffffffffffffffff16318111151515610953576040517f08c379a0000000000000000000000000000000000000000000000000000000008152600401808060200182810382526043815260200180610a126043913960600191505060405180910390fd5b6000809054906101000a900473ffffffffffffffffffffffffffffffffffffffff1673ffffffffffffffffffffffffffffffffffffffff166108fc829081150290604051600060405180830381858888f193505050501580156109ba573d6000803e3d6000fd5b5050565b6000809054906101000a900473ffffffffffffffffffffffffffffffffffffffff168156fe596f75206d75737420626520746865206f776e657220746f206578656375746520746861742066756e6374696f6e596f752063616e742065787472616374206d6f726520457468207468616e20776861747320617661696c61626c6520696e73696465207468697320636f6e7472616374a165627a7a72305820e000c44ecb6f9b6fb55d72bac88ac751567b0763ecb2b8728deaa3849405c5560029",
  "source": "pragma solidity 0.5.4;\n\ninterface IERC20 {\n    function transfer(address to, uint256 value) external returns (bool);\n    function approve(address spender, uint256 value) external returns (bool);\n    function transferFrom(address from, address to, uint256 value) external returns (bool);\n    function totalSupply() external view returns (uint256);\n    function balanceOf(address who) external view returns (uint256);\n    function allowance(address owner, address spender) external view returns (uint256);\n    event Transfer(address indexed from, address indexed to, uint256 value);\n    event Approval(address indexed owner, address indexed spender, uint256 value);\n}\n\ncontract Escrow {\n    address payable public owner;\n\n    modifier onlyOwner {\n        require(msg.sender == owner, 'You must be the owner to execute that function');\n        _;\n    }\n\n    /// @notice This contract accepts ETH transfers\n    function () external payable {}\n\n    /// @notice To setup the initial tokens that the user will store when creating the escrow\n    /// @param _owner The address that will be the owner of this escrow, must be the owner of the tokens\n    constructor (address payable _owner) public {\n        require(_owner != address(0), 'The owner address must be set');\n        owner = _owner;\n    }\n\n    /// @notice To receive the funds from this contract to the owner of it\n    /// @param _token The address of the token to extract\n    /// @param _amount The number of tokens to extract\n    function extractFunds(address _token, uint256 _amount) public onlyOwner {\n        require(_token != address(0), 'The token address must be set');\n        IERC20(_token).transfer(owner, _amount);\n    }\n\n    /// @notice Same thing as the previous function but will all the tokens\n    /// @param _token The address of the token to extract\n    function extractAllFunds(address _token) public onlyOwner {\n        require(_token != address(0), 'The token address must be set');\n        uint256 balance = checkTokenBalance(_token);\n        IERC20(_token).transfer(owner, balance);\n    }\n\n    /// @notice To extract ether to the owner address from this contract\n    /// @param _amount The number of ETH to extract in WEI\n    function extractEther(uint256 _amount) public onlyOwner {\n        require(_amount <= address(this).balance, 'You cant extract more Eth than whats available inside this contract');\n        owner.transfer(_amount);\n    }\n\n    /// @notice To see how many of a particular token this contract contains\n    /// @param _token The address of the token to check\n    /// @return uint256 The number of tokens this contract contains\n    function checkTokenBalance(address _token) public view returns(uint256) {\n        require(_token != address(0), 'The token address must be set');\n        return IERC20(_token).balanceOf(address(this));\n    }\n}\n",
  "sourcePath": "/Users/merunas/Desktop/decentralized-exchange/contracts/Escrow.sol",
  "compiler": {
    "name": "solc",
    "version": "0.5.4+commit.9549d8ff.Emscripten.clang"
  },
  "schemaVersion": "3.0.0-beta.2",
  "updatedAt": "2019-03-03T10:51:22.105Z",
  "devdoc": {
    "methods": {
      "checkTokenBalance(address)": {
        "params": {
          "_token": "The address of the token to check"
        },
        "return": "uint256 The number of tokens this contract contains"
      },
      "constructor": {
        "params": {
          "_owner": "The address that will be the owner of this escrow, must be the owner of the tokens"
        }
      },
      "extractAllFunds(address)": {
        "params": {
          "_token": "The address of the token to extract"
        }
      },
      "extractEther(uint256)": {
        "params": {
          "_amount": "The number of ETH to extract in WEI"
        }
      },
      "extractFunds(address,uint256)": {
        "params": {
          "_amount": "The number of tokens to extract",
          "_token": "The address of the token to extract"
        }
      }
    }
  },
  "userdoc": {
    "methods": {
      "checkTokenBalance(address)": {
        "notice": "To see how many of a particular token this contract contains"
      },
      "constructor": "To setup the initial tokens that the user will store when creating the escrow",
      "extractAllFunds(address)": {
        "notice": "Same thing as the previous function but will all the tokens"
      },
      "extractEther(uint256)": {
        "notice": "To extract ether to the owner address from this contract"
      },
      "extractFunds(address,uint256)": {
        "notice": "To receive the funds from this contract to the owner of it"
      }
    }
  }
}