{
  "contractName": "Escrow",
  "abi": [
    {
      "constant": true,
      "inputs": [
        {
          "name": "",
          "type": "uint256"
        }
      ],
      "name": "tokens",
      "outputs": [
        {
          "name": "",
          "type": "address"
        }
      ],
      "payable": false,
      "stateMutability": "view",
      "type": "function"
    },
    {
      "constant": true,
      "inputs": [],
      "name": "owner",
      "outputs": [
        {
          "name": "",
          "type": "address"
        }
      ],
      "payable": false,
      "stateMutability": "view",
      "type": "function"
    },
    {
      "constant": true,
      "inputs": [
        {
          "name": "",
          "type": "address"
        }
      ],
      "name": "tokenFunds",
      "outputs": [
        {
          "name": "",
          "type": "uint256"
        }
      ],
      "payable": false,
      "stateMutability": "view",
      "type": "function"
    },
    {
      "inputs": [
        {
          "name": "_initialTokens",
          "type": "address[]"
        },
        {
          "name": "_initialFunds",
          "type": "uint256[]"
        },
        {
          "name": "_owner",
          "type": "address"
        }
      ],
      "payable": false,
      "stateMutability": "nonpayable",
      "type": "constructor"
    },
    {
      "payable": true,
      "stateMutability": "payable",
      "type": "fallback"
    },
    {
      "constant": false,
      "inputs": [
        {
          "name": "_token",
          "type": "address"
        },
        {
          "name": "_amount",
          "type": "uint256"
        }
      ],
      "name": "extractFunds",
      "outputs": [],
      "payable": false,
      "stateMutability": "nonpayable",
      "type": "function"
    },
    {
      "constant": false,
      "inputs": [
        {
          "name": "_token",
          "type": "address"
        }
      ],
      "name": "extractAllFunds",
      "outputs": [],
      "payable": false,
      "stateMutability": "nonpayable",
      "type": "function"
    },
    {
      "constant": false,
      "inputs": [
        {
          "name": "_amount",
          "type": "uint256"
        }
      ],
      "name": "extractEther",
      "outputs": [],
      "payable": false,
      "stateMutability": "nonpayable",
      "type": "function"
    },
    {
      "constant": true,
      "inputs": [
        {
          "name": "_token",
          "type": "address"
        }
      ],
      "name": "checkTokenBalance",
      "outputs": [
        {
          "name": "",
          "type": "uint256"
        }
      ],
      "payable": false,
      "stateMutability": "view",
      "type": "function"
    }
  ],
  "bytecode": "0x60806040523480156200001157600080fd5b5060405162000fd138038062000fd1833981018060405260608110156200003757600080fd5b8101908080516401000000008111156200005057600080fd5b828101905060208101848111156200006757600080fd5b81518560208202830111640100000000821117156200008557600080fd5b50509291906020018051640100000000811115620000a257600080fd5b82810190506020810184811115620000b957600080fd5b8151856020820283011164010000000082111715620000d757600080fd5b50509291906020018051906020019092919050505060648351111515156200014b576040517f08c379a000000000000000000000000000000000000000000000000000000000815260040180806020018281038252602a81526020018062000fa7602a913960400191505060405180910390fd5b600073ffffffffffffffffffffffffffffffffffffffff168173ffffffffffffffffffffffffffffffffffffffff1614151515620001f1576040517f08c379a000000000000000000000000000000000000000000000000000000000815260040180806020018281038252601d8152602001807f546865206f776e65722061646472657373206d7573742062652073657400000081525060200191505060405180910390fd5b806000806101000a81548173ffffffffffffffffffffffffffffffffffffffff021916908373ffffffffffffffffffffffffffffffffffffffff160217905550826001908051906020019062000249929190620002e6565b5060008090505b8351811015620002dc5782818151811015156200026957fe5b906020019060200201516002600086848151811015156200028657fe5b9060200190602002015173ffffffffffffffffffffffffffffffffffffffff1673ffffffffffffffffffffffffffffffffffffffff16815260200190815260200160002081905550808060010191505062000250565b50505050620003bb565b82805482825590600052602060002090810192821562000362579160200282015b82811115620003615782518260006101000a81548173ffffffffffffffffffffffffffffffffffffffff021916908373ffffffffffffffffffffffffffffffffffffffff1602179055509160200191906001019062000307565b5b50905062000371919062000375565b5090565b620003b891905b80821115620003b457600081816101000a81549073ffffffffffffffffffffffffffffffffffffffff0219169055506001016200037c565b5090565b90565b610bdc80620003cb6000396000f3fe60806040526004361061008d576000357c0100000000000000000000000000000000000000000000000000000000900480634f64b2be1161006b5780634f64b2be146101a05780635729bbc41461021b5780638da5cb5b14610256578063a572a1ff146102ad5761008d565b8063126cbe601461008f5780631d033514146100f45780633995f0421461014f575b005b34801561009b57600080fd5b506100de600480360360208110156100b257600080fd5b81019080803573ffffffffffffffffffffffffffffffffffffffff169060200190929190505050610312565b6040518082815260200191505060405180910390f35b34801561010057600080fd5b5061014d6004803603604081101561011757600080fd5b81019080803573ffffffffffffffffffffffffffffffffffffffff16906020019092919080359060200190929190505050610493565b005b34801561015b57600080fd5b5061019e6004803603602081101561017257600080fd5b81019080803573ffffffffffffffffffffffffffffffffffffffff1690602001909291905050506106e3565b005b3480156101ac57600080fd5b506101d9600480360360208110156101c357600080fd5b8101908080359060200190929190505050610940565b604051808273ffffffffffffffffffffffffffffffffffffffff1673ffffffffffffffffffffffffffffffffffffffff16815260200191505060405180910390f35b34801561022757600080fd5b506102546004803603602081101561023e57600080fd5b810190808035906020019092919050505061097e565b005b34801561026257600080fd5b5061026b610b02565b604051808273ffffffffffffffffffffffffffffffffffffffff1673ffffffffffffffffffffffffffffffffffffffff16815260200191505060405180910390f35b3480156102b957600080fd5b506102fc600480360360208110156102d057600080fd5b81019080803573ffffffffffffffffffffffffffffffffffffffff169060200190929190505050610b27565b6040518082815260200191505060405180910390f35b60008073ffffffffffffffffffffffffffffffffffffffff168273ffffffffffffffffffffffffffffffffffffffff16141515156103b8576040517f08c379a000000000000000000000000000000000000000000000000000000000815260040180806020018281038252601d8152602001807f54686520746f6b656e2061646472657373206d7573742062652073657400000081525060200191505060405180910390fd5b8173ffffffffffffffffffffffffffffffffffffffff166370a08231306040518263ffffffff167c0100000000000000000000000000000000000000000000000000000000028152600401808273ffffffffffffffffffffffffffffffffffffffff1673ffffffffffffffffffffffffffffffffffffffff16815260200191505060206040518083038186803b15801561045157600080fd5b505afa158015610465573d6000803e3d6000fd5b505050506040513d602081101561047b57600080fd5b81019080805190602001909291905050509050919050565b6000809054906101000a900473ffffffffffffffffffffffffffffffffffffffff1673ffffffffffffffffffffffffffffffffffffffff163373ffffffffffffffffffffffffffffffffffffffff1614151561053a576040517f08c379a000000000000000000000000000000000000000000000000000000000815260040180806020018281038252602e815260200180610b40602e913960400191505060405180910390fd5b600073ffffffffffffffffffffffffffffffffffffffff168273ffffffffffffffffffffffffffffffffffffffff16141515156105df576040517f08c379a000000000000000000000000000000000000000000000000000000000815260040180806020018281038252601d8152602001807f54686520746f6b656e2061646472657373206d7573742062652073657400000081525060200191505060405180910390fd5b8173ffffffffffffffffffffffffffffffffffffffff1663a9059cbb6000809054906101000a900473ffffffffffffffffffffffffffffffffffffffff16836040518363ffffffff167c0100000000000000000000000000000000000000000000000000000000028152600401808373ffffffffffffffffffffffffffffffffffffffff1673ffffffffffffffffffffffffffffffffffffffff16815260200182815260200192505050602060405180830381600087803b1580156106a357600080fd5b505af11580156106b7573d6000803e3d6000fd5b505050506040513d60208110156106cd57600080fd5b8101908080519060200190929190505050505050565b6000809054906101000a900473ffffffffffffffffffffffffffffffffffffffff1673ffffffffffffffffffffffffffffffffffffffff163373ffffffffffffffffffffffffffffffffffffffff1614151561078a576040517f08c379a000000000000000000000000000000000000000000000000000000000815260040180806020018281038252602e815260200180610b40602e913960400191505060405180910390fd5b600073ffffffffffffffffffffffffffffffffffffffff168173ffffffffffffffffffffffffffffffffffffffff161415151561082f576040517f08c379a000000000000000000000000000000000000000000000000000000000815260040180806020018281038252601d8152602001807f54686520746f6b656e2061646472657373206d7573742062652073657400000081525060200191505060405180910390fd5b600061083a82610312565b90508173ffffffffffffffffffffffffffffffffffffffff1663a9059cbb6000809054906101000a900473ffffffffffffffffffffffffffffffffffffffff16836040518363ffffffff167c0100000000000000000000000000000000000000000000000000000000028152600401808373ffffffffffffffffffffffffffffffffffffffff1673ffffffffffffffffffffffffffffffffffffffff16815260200182815260200192505050602060405180830381600087803b15801561090057600080fd5b505af1158015610914573d6000803e3d6000fd5b505050506040513d602081101561092a57600080fd5b8101908080519060200190929190505050505050565b60018181548110151561094f57fe5b906000526020600020016000915054906101000a900473ffffffffffffffffffffffffffffffffffffffff1681565b6000809054906101000a900473ffffffffffffffffffffffffffffffffffffffff1673ffffffffffffffffffffffffffffffffffffffff163373ffffffffffffffffffffffffffffffffffffffff16141515610a25576040517f08c379a000000000000000000000000000000000000000000000000000000000815260040180806020018281038252602e815260200180610b40602e913960400191505060405180910390fd5b3073ffffffffffffffffffffffffffffffffffffffff16318111151515610a97576040517f08c379a0000000000000000000000000000000000000000000000000000000008152600401808060200182810382526043815260200180610b6e6043913960600191505060405180910390fd5b6000809054906101000a900473ffffffffffffffffffffffffffffffffffffffff1673ffffffffffffffffffffffffffffffffffffffff166108fc829081150290604051600060405180830381858888f19350505050158015610afe573d6000803e3d6000fd5b5050565b6000809054906101000a900473ffffffffffffffffffffffffffffffffffffffff1681565b6002602052806000526040600020600091509050548156fe596f75206d75737420626520746865206f776e657220746f206578656375746520746861742066756e6374696f6e596f752063616e742065787472616374206d6f726520457468207468616e20776861747320617661696c61626c6520696e73696465207468697320636f6e7472616374a165627a7a7230582042d361c9da0e60a615865c329602bf3adde5b83b64dda43636fe1aa96874da240029596f752063616e742073656e64206d6f7265207468616e2031303020696e697469616c20746f6b656e73",
  "source": "pragma solidity 0.5.4;\n\ninterface IERC20 {\n    function transfer(address to, uint256 value) external returns (bool);\n    function approve(address spender, uint256 value) external returns (bool);\n    function transferFrom(address from, address to, uint256 value) external returns (bool);\n    function totalSupply() external view returns (uint256);\n    function balanceOf(address who) external view returns (uint256);\n    function allowance(address owner, address spender) external view returns (uint256);\n    event Transfer(address indexed from, address indexed to, uint256 value);\n    event Approval(address indexed owner, address indexed spender, uint256 value);\n}\n\ncontract Escrow {\n    address payable public owner;\n    address[] public tokens;\n    mapping(address => uint256) public tokenFunds;\n\n    modifier onlyOwner {\n        require(msg.sender == owner, 'You must be the owner to execute that function');\n        _;\n    }\n\n    /// @notice This contract accepts ETH transfers\n    function () external payable {}\n\n    /// @notice To setup the initial tokens that the user will store when creating the escrow\n    /// @param _initialTokens The initial tokens that he'll use for the DAX\n    /// @param _initialFunds The funds for each token in order so that the contract knows how many tokens he sent here\n    constructor (address[] memory _initialTokens, uint256[] memory _initialFunds, address payable _owner) public {\n        require(_initialTokens.length <= 100, 'You cant send more than 100 initial tokens');\n        require(_owner != address(0), 'The owner address must be set');\n        owner = _owner;\n        tokens = _initialTokens;\n        for(uint256 i = 0; i < _initialTokens.length; i++) {\n            tokenFunds[_initialTokens[i]] = _initialFunds[i];\n        }\n    }\n\n    /// @notice To receive the funds from this contract to the owner of it\n    /// @param _token The address of the token to extract\n    /// @param _amount The number of tokens to extract\n    function extractFunds(address _token, uint256 _amount) public onlyOwner {\n        require(_token != address(0), 'The token address must be set');\n        IERC20(_token).transfer(owner, _amount);\n    }\n\n    /// @notice Same thing as the previous function but will all the tokens\n    /// @param _token The address of the token to extract\n    function extractAllFunds(address _token) public onlyOwner {\n        require(_token != address(0), 'The token address must be set');\n        uint256 balance = checkTokenBalance(_token);\n        IERC20(_token).transfer(owner, balance);\n    }\n\n    /// @notice To extract ether to the owner address from this contract\n    /// @param _amount The number of ETH to extract in WEI\n    function extractEther(uint256 _amount) public onlyOwner {\n        require(_amount <= address(this).balance, 'You cant extract more Eth than whats available inside this contract');\n        owner.transfer(_amount);\n    }\n\n    /// @notice To see how many of a particular token this contract contains\n    /// @param _token The address of the token to check\n    /// @return uint256 The number of tokens this contract contains\n    function checkTokenBalance(address _token) public view returns(uint256) {\n        require(_token != address(0), 'The token address must be set');\n        return IERC20(_token).balanceOf(address(this));\n    }\n}\n",
  "sourcePath": "/Users/merunas/Desktop/decentralized-exchange/contracts/Escrow.sol",
  "compiler": {
    "name": "solc",
    "version": "0.5.4+commit.9549d8ff.Emscripten.clang"
  },
  "schemaVersion": "3.0.0-beta.2",
  "updatedAt": "2019-03-03T10:49:09.894Z",
  "devdoc": {
    "methods": {
      "checkTokenBalance(address)": {
        "params": {
          "_token": "The address of the token to check"
        },
        "return": "uint256 The number of tokens this contract contains"
      },
      "constructor": {
        "params": {
          "_initialFunds": "The funds for each token in order so that the contract knows how many tokens he sent here",
          "_initialTokens": "The initial tokens that he'll use for the DAX"
        }
      },
      "extractAllFunds(address)": {
        "params": {
          "_token": "The address of the token to extract"
        }
      },
      "extractEther(uint256)": {
        "params": {
          "_amount": "The number of ETH to extract in WEI"
        }
      },
      "extractFunds(address,uint256)": {
        "params": {
          "_amount": "The number of tokens to extract",
          "_token": "The address of the token to extract"
        }
      }
    }
  },
  "userdoc": {
    "methods": {
      "checkTokenBalance(address)": {
        "notice": "To see how many of a particular token this contract contains"
      },
      "constructor": "To setup the initial tokens that the user will store when creating the escrow",
      "extractAllFunds(address)": {
        "notice": "Same thing as the previous function but will all the tokens"
      },
      "extractEther(uint256)": {
        "notice": "To extract ether to the owner address from this contract"
      },
      "extractFunds(address,uint256)": {
        "notice": "To receive the funds from this contract to the owner of it"
      }
    }
  }
}